:1004FE00696E742E2E0D0A00696E7420656E642E60
:10050E002E2E0D0A004C4344200D0A0051584D4327
:10051E005500485454503A2F2F51584D43552E43A1
:03052E004F4D002E
:10068100D3EF9400EE6480948040147D7D7C00ED76
:0F0691001D70011CED4C70F7EF1F70E41E80E12F
:0106A0002237
:10063E00C2971207AA7F011206177BFF7A0479FE72
:10064E001207851204907BFF7A0579061207850240
:02065E0007F0A3
:1004C90012063E7562017B1E7A007D01E4FF12056A
:1004D900907562017B2C7A017D017F0112059012D2
:1004E900000EE4F55BF55C7BFF7A0579131207854D
:0504F90012002E80FB43
:10061700759850438920EF7008758DFD758BFD80A7
:1006270009BF0106758DFF758BFFD28EC29FD29EC3
:07063700D29CD2AFD2AC222D
:0C07E400C2AC8F993099FDC299D2AC22B2
:1007850012040FFF600C1207E4740129F9E43AFA28
:0307950080EE22D1
:0A0561008B638A6489658C668D67E0
:10056B00E4FDFCC3ED9567EC95665018AB63AA648C
:10057B00A9658D828C83120428FF1207E40DBD0040
:04058B00010C80DF00
:01058F002249
:030023000205ECE7
:0B05EC00C0E0C0D075D000C000C00708
:1005F700C298AF9974472546F8A6070546E546D33E
:070607009413400375460047
:09060E00D007D000D0D0D0E032BA
:0C000E007F147847E4F608DFFCE4F546B8
:01001A0022C3
:1007AA00438901758CF4758AF4D2AFD2A9D28C220E
:03000B000206608A
:10066000C0E0C0F0C083C082C0D075D008758CF4E3
:10067000758AF41203BFD0D0D082D083D0F0D0E0FE
:010680003247
:1007BA00438910758D55758B55D2AFD2ABD28E2227
:03001B00020003DD
:07000300758D55758B553218
:0D07CA0075CBD875CAF0D2ADD2AFD2CA221D
:03002B0002071DAC
:10071D00C0E0C0F0C083C082C0D075D008C2CF1277
:0D072D0003BFD0D0D082D083D0F0D0E03216
:10075600742E2FF806E6C394FF4006742E2FF8E495
:08076600F6743A2FF8E4F622C4
:1003BF00E4FF74402FF8E664017030EF25E024224B
:1003CF00F80806E618700106EF25E02416F8E6FC9B
:1003DF0008E6FDEF25E02422F8E6FA08E6D39DEAC9
:1003EF009C4018743A2FF876018006743A2FF8E47F
:0F03FF00F6EF25E02422F8E4F608F60FBF06B368
:01040E0022CB
:10049000E4FF74102FF8E4F6EF25E02422F8E4F6E8
:1004A00008F6743A2FF8E4F674402FF8E4F6742E48
:1004B0002FF8E4F674342FF8E4F6EF25E02416F86C
:0804C000E4F608F60FBF06CABE
:0104C8002211
:1005900074102FF8A607EF25E02416F8A60208A687
:1005A0000374402FF8A60574342FF8A662EF25E0F7
:0E05B0002422F8E4F608F6742E2FF8E4F62262
:1005BE004C31410D0A004C32410D0A004C33410DB5
:1005CE000A004C31420D0A004C32420D0A004C33E7
:0E05DE00420D0A00C0F9A4B0999282F88090F4
:1006A100016C000168004100240041002500410067
:0206B100260021
:10002E00E4F55D7440255DF8E664016002213874E4
:10003E003A255DF8E66401600221387434255DF8D6
:10004E00E6FF742E255DF8E6C39F40022138AF5DB2
:10005E001207567410255DF8E614602B14603814E0
:10006E0060471460561460652405600221597B00B8
:10007E007A0079471202A412000E7562017B147A7F
:10008E00007D01E4FF213312036C7562017BF47A6B
:10009E00017D017F012133E4900024F07BFF7A057E
:1000AE0079BE120785D2902159E4900025F07BFF8E
:1000BE007A0579C4120785D2912159E4900026F071
:1000CE007BFF7A0579CA120785D292807EE56C1481
:1000DE00601A1460271460342403703ED2A3900576
:1000EE00E2E493F580C2A0756C01802ED2A090053B
:1000FE00E3E493F580C2A1756C02801ED2A1900537
:10010E00E4E493F580C2A2756C03800ED2A2900532
:10011E00E5E493F580C2A3E4F56C7562017B017A88
:10012E00007D017F0512059080217440255DF8E663
:10013E00B401187434255DF8E6FF742E255DF8E6DB
:10014E00C39F40077440255DF8E4F6055DE55DC389
:06015E009406500201317D
:010164002278
:1002A400E546C394024067E546606312040F24CE1A
:1002B400602314603C24027055C2907BFF7A057958
:1002C400D01207859000247401F0F5627BB87A0B94
:1002D400FD7F028036C2917BFF7A0579D6120785AD
:1002E4009000257401F0F5627BB87A0BFD7F0380E2
:1002F4001AC2927BFF7A0579DC1207859000267476
:0F03040001F0F5627BB87A0BFD7F0412059022A1
:10036C00E56B14601E14603224027046756B0190AC
:10037C000024E07BFF70067A0579BE80327A05791D
:10038C00D0802C756B02900025E07BFF70067A05FF
:10039C0079C4801B7A0579D68015E4F56B9000261C
:1003AC00E07BFF70067A0579CA80047A0579DC1245
:0303BC0007852290
:0707F000D290D291D29222B7
:0706C0001206DF7F017E003E
:1006C700E4FDEDC39FEE6480F87480985009E4FC64
:0706D7000CBCFDFC0D80EBE3
:0106DE0022F9
:10079800C287D286D28500000000E5A05480FFC23F
:0107A80085CB
:0107A900222D
:1006DF00AE07120798EF70FAC287C286C285000074
:0F06EF008EA000000000D28500000000C285220E
:0707F700EF4480FF0206DF62
:1006FE00AE07120798EF70FAD287C286C285000045
:0F070E008EA000000000D28500000000C28522EE
:10073A007F381206C07F0C1206C07F061206C0124E
:0C074A0006C07F0A1206C7E4FF0207F792
:0C06B30041000000450011525332333268
:1005310012040F90001FF090000112042890002077
:10054100F0900002120428900021F09000031204A0
:1005510028900022F0900004120428900023F02239
:10076E00D3EF9400EE9400400DE4FD0DBD1BFCEFA5
:06077E001F70ED1E80EA71
:010784002252
:0C07D700156D156D156D156D156D156D0A
:0107E30022F3
:10031300E4FC9000097402F020A00A900009E0FEBA
:1003230004F0EE70F31207D71207D71207D7E49041
:10033300000EF030A00204F09000097402F030A027
:100343000A900009E0FE04F0EE70F3900009E06407
:10035300016015900019E025E0FEF090000EE04EDC
:08036300900019F00CBC08AA7F
:01036B00226F
:10016500C2A07FB47E0012076ED2A01207D7120775
:10017500D71207D71207D7D2A030A0024117900097
:10018500097402F020A00A900009E0FF04F0EF7066
:10019500F39000097402F030A00A900009E0FF0412
:1001A500F0EF70F3120313900019E0900016F012AF
:1001B5000313900019E0900017F012031390001933
:1001C500E0900003F0120313900019E0900004F092
:1001D500120313900019E0FF90000DF0D2A09000DB
:1001E50004E0FE900003E0FD2EFC900016E0FB2CE1
:1001F500FCA3E0FA2C90000EF0B50716A3EBF0A3D4
:10020500EAF0900001EDF0A3EEF090000DE0900013
:030215000BF022C9
:1004550012016590000FE0900011F0900010E090FF
:100465000012F0900001E0900013F0900002E0907F
:100475000014F090000BE0900015F07B017A0079F4
:0B048500111205317F207E4E02076E31
:03000000020218E1
:0C021800787FE4F6D8FD75816D02025F6E
:10040F00BB010689828A83E0225002E722BBFE02EB
:09041F00E32289828A83E493221E
:10042800BB010CE58229F582E5833AF583E0225089
:1004380006E92582F8E622BBFE06E92582F8E222D3
:0D044800E58229F582E5833AF583E49322ED
:100224000204C9E493A3F8E493A34003F68001F223
:1002340008DFF48029E493A3F85407240CC8C333DB
:10024400C4540F4420C8834004F456800146F6DFAA
:10025400E4800B01020408102040809006A1E47E93
:10026400019360BCA3FF543F30E509541FFEE4939F
:10027400A360010ECF54C025E060A840B8E493A366
:10028400FAE493A3F8E493A3C8C582C8CAC583CA91
:10029400F0A3C8C582C8CAC583CADFE9DEE780BE49
:0106BF00003A
:00000001FF
