:10054100696E742E2E0D0A00696E7420656E642E1C
:100551002E2E0D0A004C4344200D0A0051584D43E4
:100561005500485454503A2F2F51584D43552E435E
:030571004F4D00EB
:1006C400D3EF9400EE6480948040147D7D7C00ED33
:0F06D4001D70011CED4C70F7EF1F70E41E80E1EC
:0106E30022F4
:10068100C2971207ED7F0112065A7BFF7A05794165
:100691001207C81204D37BFF7A0579491207C802F1
:0206A100083619
:10050C001206817562017B1E7A007D01E4FF1205E3
:10051C00D37562017B2C7A017D017F011205D31208
:10052C00000EE4F55BF55C7BFF7A0579561207C883
:05053C0012002E80FBFF
:10065A00759850438920EF7008758DFD758BFD8064
:10066A0009BF0106758DFF758BFFD28EC29FD29E80
:07067A00D29CD2AFD2AC22EA
:0C082A00C2AC8F993099FDC299D2AC226B
:1007C800120452FF600C12082A740129F9E43AFA5B
:0307D80080EE228E
:0A05A4008B638A6489658C668D679D
:1005AE00E4FDFCC3ED9567EC95665018AB63AA6449
:1005BE00A9658D828C8312046BFF12082A0DBD0073
:0405CE00010C80DFBD
:0105D2002206
:0300230002062FA3
:0B062F00C0E0C0D075D000C000C007C4
:10063A00C298AF9974472546F8A6070546E546D3FA
:07064A009413400375460004
:09065100D007D000D0D0D0E03277
:0C000E007F147847E4F608DFFCE4F546B8
:01001A0022C3
:1007ED00438901758CF4758AF4D2AFD2A9D28C22CB
:03000B000206A347
:1006A300C0E0C0F0C083C082C0D075D008758CF4A0
:1006B300758AF4120402D0D0D082D083D0F0D0E077
:0106C3003204
:10080000438910758D55758B55D2AFD2ABD28E22E0
:03001B00020003DD
:07000300758D55758B553218
:0D08100075CBD875CAF0D2ADD2AFD2CA22D6
:03002B0002076069
:10076000C0E0C0F0C083C082C0D075D008C2CF1234
:0D0770000402D0D0D082D083D0F0D0E0328F
:10079900742E2FF806E6C394FF4006742E2FF8E452
:0807A900F6743A2FF8E4F62281
:10040200E4FF74402FF8E664017030EF25E0242207
:10041200F80806E618700106EF25E02416F8E6FC57
:1004220008E6FDEF25E02422F8E6FA08E6D39DEA85
:100432009C4018743A2FF876018006743A2FF8E43B
:0F044200F6EF25E02422F8E4F608F60FBF06B324
:010451002288
:1004D300E4FF74102FF8E4F6EF25E02422F8E4F6A5
:1004E30008F6743A2FF8E4F674402FF8E4F6742E05
:1004F3002FF8E4F674342FF8E4F6EF25E02416F829
:08050300E4F608F60FBF06CA7A
:01050B0022CD
:1005D30074102FF8A607EF25E02416F8A60208A644
:1005E3000374402FF8A60574342FF8A662EF25E0B4
:0E05F3002422F8E4F608F6742E2FF8E4F6221F
:100601004C31410D0A004C31420D0A004C32410D72
:100611000A004C32420D0A004C33410D0A004C33A2
:0E062100420D0A00C0F9A4B0999282F88090B0
:1006E400016C000168004100240041002500410024
:0206F4002600DE
:10002E00E4F55D7440255DF8E664016002215074CC
:10003E003A255DF8E66401600221507434255DF8BE
:10004E00E6FF742E255DF8E6C39F40022150AF5D9A
:10005E001207997410255DF8E614602B14603514A0
:10006E00604D14606514607D2405600221717B0073
:10007E007A00794712023012000E7562017B147AF3
:10008E00007D01E4FF214B7562017BF47A017D0155
:10009E007F01214B9000247401F07BFF70067A06DD
:1000AE00790180047A0679071207C8D290217190DF
:1000BE0000257401F07BFF70067A06790D80047AB4
:1000CE000679131207C8D29121719000267401F09F
:1000DE007BFF70067A06791980047A06791F12075B
:1000EE00C8D292807EE56C14601A146027146034B6
:1000FE002403703ED2A3900625E493F580C2A0752A
:10010E006C01802ED2A0900626E493F580C2A175D4
:10011E006C02801ED2A1900627E493F580C2A275D0
:10012E006C03800ED2A2900628E493F580C2A3E45D
:10013E00F56C7562017B017A007D017F051205D396
:10014E0080217440255DF8E6B401187434255DF8FD
:10015E00E6FF742E255DF8E6C39F40077440255DCB
:0E016E00F8E4F6055DE55DC39406500201312C
:01017C002260
:10023000E546C39402500241C9E546700241C91225
:10024000045224CE60301460562402707CC2909018
:100250000024E07BFF70067A06790180047A067933
:10026000071207C8E4900024F07562017BB87A0B8E
:100270007D017F028050C291900025E07BFF7006D7
:100280007A06790D80047A0679131207C8E4900083
:1002900025F07562017BB87A0B7D017F038027C250
:1002A00092900026E07BFF70067A06791980047A26
:1002B00006791F1207C8E4900026F07562017BB82A
:0A02C0007A0B7D017F041205D322A2
:1003AF00E56B14601E14603224027046756B019069
:1003BF000024E07BFF70067A06790180327A067995
:1003CF0007802C756B02900025E07BFF70067A0684
:1003DF00790D801B7A0679138015E4F56B90002652
:1003EF00E07BFF70067A06791980047A06791F126E
:0303FF0007C8220A
:07083600D290D291D2922270
:070703001207227F017E00B6
:10070A00E4FDEDC39FEE6480F87480985009E4FC20
:07071A000CBCFDFC0D80EB9F
:0107210022B5
:1007DB00C287D286D28500000000E5A05480FFC2FC
:0107EB008588
:0107EC0022EA
:10072200AE071207DBEF70FAC287C286C2850000ED
:0F0732008EA000000000D28500000000C28522CA
:07083D00EF4480FF020722D7
:10074100AE071207DBEF70FAD287C286C2850000BE
:0F0751008EA000000000D28500000000C28522AB
:10077D007F381207037F0C1207037F06120703123F
:0C078D0007037F0A12070AE4FF02083D80
:0C06F60041000000450011525332333225
:1005740012045290001FF090000112046B900020AE
:10058400F090000212046B900021F090000312041A
:100594006B900022F090000412046B900023F02270
:1007B100D3EF9400EE9400400DE4FD0DBD1BFCEF62
:0607C1001F70ED1E80EA2E
:0107C700220F
:0C081D00156D156D156D156D156D156DC3
:0108290022AC
:10035600E4FC9000097402F020A00A900009E0FE77
:1003660004F0EE70F312081D12081D12081DE49029
:10037600000EF030A00204F09000097402F030A0E4
:100386000A900009E0FE04F0EE70F3900009E064C4
:10039600016015900019E025E0FEF090000EE04E99
:0803A600900019F00CBC08AA3C
:0103AE00222C
:10017D00C2A07FB47E001207B1D2A012081D1208D2
:10018D001D12081D12081DD2A030A002412F900093
:10019D00097402F020A00A900009E0FF04F0EF704E
:1001AD00F39000097402F030A00A900009E0FF04FA
:1001BD00F0EF70F3120356900019E0900016F01254
:1001CD000356900019E0900017F012035690001995
:1001DD00E0900003F0120356900019E0900004F037
:1001ED00120356900019E0FF90000DF0D2A0900080
:1001FD0004E0FE900003E0FD2EFC900016E0FB2CC9
:10020D00FCA3E0FA2C90000EF0B50716A3EBF0A3BB
:10021D00EAF0900001EDF0A3EEF090000DE09000FB
:03022D000BF022B1
:1004980012017D90000FE0900011F0900010E090A4
:1004A8000012F0900001E0900013F0900002E0903C
:1004B8000014F090000BE0900015F07B017A0079B1
:0B04C800111205747F207E4E0207B168
:030000000202CA2F
:0C02CA00787FE4F6D8FD75816D02031109
:10045200BB010689828A83E0225002E722BBFE02A8
:09046200E32289828A83E49322DB
:10046B00BB010CE58229F582E5833AF583E0225046
:10047B0006E92582F8E622BBFE06E92582F8E22290
:0D048B00E58229F582E5833AF583E49322AA
:1002D60002050CE493A3F8E493A34003F68001F22D
:1002E60008DFF48029E493A3F85407240CC8C33329
:1002F600C4540F4420C8834004F456800146F6DFF8
:10030600E4800B01020408102040809006E4E47E9D
:10031600019360BCA3FF543F30E509541FFEE493EC
:10032600A360010ECF54C025E060A840B8E493A3B3
:10033600FAE493A3F8E493A3C8C582C8CAC583CADE
:10034600F0A3C8C582C8CAC583CADFE9DEE780BE96
:0107020000F6
:00000001FF
