:100F100051584D435500485454503A2F2F51584D75
:070F200043552E434F4D0025
:100E2700D3EF9400EE6480948040147D7D7C00EDC8
:0F0E37001D70011CED4C70F7EF1F70E41E80E181
:010E46002289
:100F7600C297120F867F01120DDF120CEE020EC110
:100A9A00120F767565017B1E7A007D01E4FF120D47
:100AAA00867565017B2C7A017D017F02120D8675A0
:100ABA0065017B017A007D017F04120D86120FA663
:100ACA007410255CF582740F355BF583E493FF603F
:100ADA000D120E85055CE55C70E6055B80E27F40E1
:100AEA00120FEBE4F55BF55C7416255CF582740F66
:100AFA00355BF583E493FF600D120E85055CE55CBA
:100B0A0070E6055B80E2120CB3900001E0FF120F61
:100B1A00CD900002E0FF120FCD90000FE0FF120F00
:0E0B2A00CD900010E0FF120FCD12080080FBEE
:100DDF00759850438920EF7008758DFD758BFD80D8
:100DEF0009BF0106758DFF758BFFD28EC29FD29EF4
:070DFF00D29CD2AFD2AC225E
:0C0FCD00C2AC8F993099FDC299D2AC22C1
:100F3E00120C6DFF600C120FCD740129F9E43AFA10
:030F4E0080EE2210
:0A0D57008B668A6789688C698D6AD3
:100D6100E4FDFCC3ED956AEC95695018AB66AA6782
:100D7100A9688D828C83120C86FF120FCD0DBD00E8
:040D8100010C80DF02
:010D8500224B
:03002300020DB417
:0B0DB400C0E0C0D075D000C000C00738
:100DBF00C298AF9974472546F8A6070546E546D36E
:070DCF009413400375460078
:090DD600D007D000D0D0D0E032EB
:0C0FA6007F147847E4F608DFFCE4F54611
:010FB200221C
:100F8600438901758CF4758AF4D2AFD2A9D28C222A
:03000B00020E06DC
:100E0600C0E0C0F0C083C082C0D075D008758CF435
:100E1600758AF4120C1DD0D0D082D083D0F0D0E0E9
:010E26003299
:100F9600438910758D55758B55D2AFD2ABD28E2243
:03001B00020FE4ED
:070FE400758D55758B553228
:0D0FB30075CBD875CAF0D2ADD2AFD2CA222C
:03002B00020EA41E
:100EA400C0E0C0F0C083C082C0D075D008C2CF12E9
:0D0EB4000C1DD0D0D082D083D0F0D0E03221
:100EF800742E2FF806E6C394FF4006742E2FF8E4EC
:080F0800F6743A2FF8E4F6221A
:100C1D00E4FF74402FF8E664017030EF25E02422E4
:100C2D00F80806E618700106EF25E02416F8E6FC34
:100C3D0008E6FDEF25E02422F8E6FA08E6D39DEA62
:100C4D009C4018743A2FF876018006743A2FF8E418
:0F0C5D00F6EF25E02422F8E4F608F60FBF06B301
:010C6C002265
:100CEE00E4FF74102FF8E4F6EF25E02422F8E4F682
:100CFE0008F6743A2FF8E4F674402FF8E4F6742EE2
:100D0E002FF8E4F674342FF8E4F6EF25E02416F805
:080D1E00E4F608F60FBF06CA57
:010D260022AA
:100D860074102FF8A607EF25E02416F8A60208A689
:100D96000374402FF8A60574342FF8A665EF25E0F6
:0E0DA6002422F8E4F608F6742E2FF8E4F62264
:100EDD006F70656E206C6F636B65722035730D0AD4
:0B0EED0000C0F9A4B0999282F8809038
:060F5100016E00016B00BF
:10080000E4F55D7440255DF8E66401600201E07482
:100810003A255DF8E66401600201E07434255DF874
:10082000E6FF742E255DF8E6C39F400201E0AF5D50
:10083000120EF87410255DF8E614602F146034244D
:10084000FD60402405600221017B007A0079471297
:100850000F3E7B007A00794712090D120FA67565CD
:10086000017B147A007D01E4FF8070756B01120F2B
:10087000D92101120FD97565017BB87A0B7D017FF3
:10088000028058E56E14601A146027146034240343
:10089000703ED2A3900EEEE493F580C2A0756E0177
:1008A000802ED2A0900EEFE493F580C2A1756E0267
:1008B000801ED2A1900EF0E493F580C2A2756E0363
:1008C000800ED2A2900EF1E493F580C2A3E4F56EFF
:1008D0007565017B017A007D017F05120D868021FF
:1008E0007440255DF8E6B401187434255DF8E6FF20
:1008F000742E255DF8E6C39F40077440255DF8E43B
:0C090000F6055DE55DC39406500201039E
:01090C0022C8
:10090D008B5E8A5F8960E546C39405500221E6E55A
:10091D0046700221E6AB5EAA5FA960120C6D6455AC
:10092D007056900001120C86644E704C90000212AD
:10093D000C86644C7042900003120C86644F703824
:10094D00900004120C866443702E900005120C86E4
:10095D00B44B25D297756C00756D077BFF7A0E79B8
:10096D00DD120F3E756B01120FD97565017B017A92
:10097D00007D017F03120D86AB5EAA5FA960120C8C
:10098D006D64547054900001120C86644F704A903F
:10099D000002120C86644C7040900003120C8664A9
:1009AD004F7036900004120C866443702C90000535
:1009BD00120C86B44B23E4F56CF56DF56B120FD963
:1009CD007565017B017A007D017F04120D86E4F5CA
:0A09DD0065FBFAFD7F03120D862270
:0B0FD900E56BB40103D29722C29722FF
:070E4700120E667F017E0020
:100E4E00E4FDEDC39FEE6480F87480985009E4FCD5
:070E5E000CBCFDFC0D80EB54
:010E6500226A
:100F6400C287D286D28500000000E5A05480FFC26B
:010F740085F7
:010F75002259
:100E6600AE07120F64EF70FAC287C286C285000011
:0F0E76008EA000000000D28500000000C285227F
:070FEB00EF4480FF020E66D7
:100E8500AE07120F64EF70FAD287C286C2850000E2
:0F0E95008EA000000000D28500000000C2852260
:100EC1007F38120E477F0C120E477F06120E471213
:0C0ED1000E477F0A120E4EE4FF020FEBEA
:0C0F5700410000004500115253323332BB
:100D2700120C6D90001FF0900001120C86900020AD
:100D3700F0900002120C86900021F0900003120C34
:100D470086900022F0900004120C86900023F02277
:100F2700D3EF9400EE9400400DE4FD0DBD1BFCEFE4
:060F37001F70ED1E80EAB0
:010F3D002291
:0C0FC000155D155D155D155D155D155D79
:010FCC002202
:100BC400E4FC9000097402F020A00A900009E0FE01
:100BD40004F0EE70F3120FC0120FC0120FC0E490B5
:100BE400000EF030A00204F09000097402F030A06E
:100BF4000A900009E0FE04F0EE70F3900009E0644E
:100C0400016015900019E025E0FEF090000EE04E22
:080C1400900019F00CBC08AAC5
:010C1C0022B5
:1009E700C2A07FB47E00120F27D2A0120FC0120F31
:1009F700C0120FC0120FC0D2A030A00241999000C0
:100A0700097402F020A00A900009E0FF04F0EF70DB
:100A1700F39000097402F030A00A900009E0FF0487
:100A2700F0EF70F3120BC4900019E0900016F0126B
:100A37000BC4900019E0900017F0120BC490001936
:100A4700E0900003F0120BC4900019E0900004F04E
:100A5700120BC4900019E0FF90000DF0D2A0900097
:100A670004E0FE900003E0FD2EFC900016E0FB2C56
:100A7700FCA3E0FA2C90000EF0B50716A3EBF0A349
:100A8700EAF0900001EDF0A3EEF090000DE0900089
:030A97000BF0223F
:100CB3001209E790000FE0900011F0900010E0900F
:100CC3000012F0900001E0900013F0900002E09019
:100CD3000014F090000BE0900015F07B017A00798E
:0B0CE30011120D277F207E4E020F270C
:03000000020B38B8
:0C0B3800787FE4F6D8FD75816E020B7F1B
:100C6D00BB010689828A83E0225002E722BBFE0285
:090C7D00E32289828A83E49322B8
:100C8600BB010CE58229F582E5833AF583E0225023
:100C960006E92582F8E622BBFE06E92582F8E2226D
:0D0CA600E58229F582E5833AF583E4932287
:100B4400020A9AE493A3F8E493A34003F68001F223
:100B540008DFF48029E493A3F85407240CC8C333B2
:100B6400C4540F4420C8834004F456800146F6DF81
:100B7400E4800B0102040810204080900F51E47EB1
:100B8400019360BCA3FF543F30E509541FFEE49376
:100B9400A360010ECF54C025E060A840B8E493A33D
:100BA400FAE493A3F8E493A3C8C582C8CAC583CA68
:100BB400F0A3C8C582C8CAC583CADFE9DEE780BE20
:010F6300008D
:00000001FF
