:100D1A00696E742E2E0D0A00696E7420656E642E3B
:050D2A002E2E0D0A0051
:100C8800D3EF9400EE6480948040147D7D7C00ED69
:0F0C98001D70011CED4C70F7EF1F70E41E80E122
:010CA700222A
:100CC800C297120D427F01120C407BFF7A0D791AF0
:0F0CD800120D2F120B557BFF7A0D7922020D2F73
:100B1200120CC87563017B1E7A007D01E4FF120B83
:100B2200BD7563017B2C7A017D017F02120BBD75BD
:100B320063017B017A007D017F04120BBD756301A5
:100B42007B017A007D017F05120BBD120D62120836
:030B5200DA80FB4B
:100C4000759850438920EF7008758DFD758BFD8078
:100C500009BF0106758DFF758BFFD28EC29FD29E94
:070C6000D29CD2AFD2AC22FE
:0C0D7C00C2AC8F993099FDC299D2AC2214
:100D2F00120ACCFF600C120D7C740129F9E43AFA17
:030D3F0080EE2221
:0A0B8E008B648A6589668C678D68A8
:100B9800E4FDFCC3ED9568EC95675018AB64AA6555
:100BA800A9668D828C83120AE5FF120D7C0DBD00AB
:040BB800010C80DFCD
:010BBC002216
:03002300020BEBE2
:0B0BEB00C0E0C0D075D000C000C00703
:100BF600C298AF9974472546F8A6070546E546D339
:070C06009413400375460042
:090C0D00D007D000D0D0D0E032B5
:0C0D62007F147847E4F608DFFCE4F54657
:010D6E002262
:100D4200438901758CE8758AE8D2AFD2A9D28C2288
:03000B00020C677D
:100C6700C0E0C0F0C083C082C0D075D008758CF4D6
:100C7700758AF4120A7CD0D0D082D083D0F0D0E02D
:010C8700323A
:100D5200438910758D55758B55D2AFD2ABD28E2289
:03001B00020D9241
:070D9200758D55758B55327C
:0D0D6F0075CBD875CAF0D2ADD2AFD2CA2272
:03002B00020CA81C
:100CA800C0E0C0F0C083C082C0D075D008C2CF6396
:100CB80090FF120A7CD0D0D082D083D0F0D0E0321E
:100D0200742E2FF806E6C394FF4006742E2FF8E4E3
:080D1200F6743A2FF8E4F62212
:100A7C00E4FF74402FF8E664017030EF25E0242287
:100A8C00F80806E618700106EF25E02416F8E6FCD7
:100A9C0008E6FDEF25E02422F8E6FA08E6D39DEA05
:100AAC009C4018743A2FF876018006743A2FF8E4BB
:0F0ABC00F6EF25E02422F8E4F608F60FBF06B3A4
:010ACB002208
:100B5500E4FF74102FF8E4F6EF25E02422F8E4F61C
:100B650008F6743A2FF8E4F674402FF8E4F6742E7C
:100B75002FF8E4F674342FF8E4F6EF25E02416F8A0
:080B8500E4F608F60FBF06CAF2
:010B8D002245
:100BBD0074102FF8A607EF25E02416F8A60208A654
:100BCD000374402FF8A60574342FF8A663EF25E0C3
:0E0BDD002422F8E4F608F6742E2FF8E4F6222F
:100C1600554E4C4F434B0D0A006F70656E206C6F3E
:100C2600636B65722035730D0A00756E6C6F636BAE
:0A0C36000D0A006C6F636B0D0A00DD
:030D9900016900ED
:1008DA00E4F55B7440255BF8E66401600221687404
:1008EA003A255BF8E6640170757434255BF8E6FF17
:1008FA00742E255BF8E6C39F5064AF5B120D027439
:10090A0010255BF8E614602D14603B24FD604A2430
:10091A0005706C7B007A007947120D2F7B007A00F4
:10092A007947120800120D627563017B147A007D03
:10093A0001E4FF801F756901120CE77BFF7A0C79CD
:10094A0016120D2F8039120CE77563017BB87A0BEA
:10095A007D017F02120BBD8026120A21802174407C
:10096A00255BF8E6B401187434255BF8E6FF742EAB
:10097A00255BF8E6C39F40077440255BF8E4F6055B
:0A098A005BE55BC39406500201DD3B
:010994002240
:100800008B5C8A5D895EE546C39405500201D9E59B
:1008100046700201D9AB5CAA5DA95E120ACC645590
:100820007056900001120AE5644E704C900002125E
:100830000AE5644C7042900003120AE5644F703878
:10084000900004120AE56443702E900005120AE538
:10085000B44B25D297756A00756B077BFF7A0C79CC
:100860001F120D2F756901120CE77563017B017A68
:10087000007D017F03120BBDAB5CAA5DA95E120A6D
:10088000CC64547054900001120AE5644F704A9091
:100890000002120AE5644C7040900003120AE564FD
:1008A0004F7036900004120AE56443702C900005E6
:1008B000120AE5B44B23E4F56AF56BF569120CE70F
:1008C0007563017B017A007D017F04120BBDE4F5A5
:0A08D00063FBFAFD7F03120BBD224B
:100CE700E569B4010AD2977BFF7A0C79308008C294
:0B0CF700977BFF7A0C7939120D2F2239
:0A0D8800C0F9A4B0999282F880909F
:030D9C00016C00E7
:100A2100E56C14601A1460271460342403703ED2FC
:100A3100A3900D88E493F580C2A0756C01802ED23D
:100A4100A0900D89E493F580C2A1756C02801ED23D
:100A5100A1900D8AE493F580C2A2756C03800ED239
:100A6100A2900D8BE493F580C2A3E4F56C7563014C
:0B0A71007B017A007D017F05020BBDB8
:030000000209955D
:0C099500787FE4F6D8FD75816C0209DC67
:100ACC00BB010689828A83E0225002E722BBFE0228
:090ADC00E32289828A83E493225B
:100AE500BB010CE58229F582E5833AF583E02250C6
:100AF50006E92582F8E622BBFE06E92582F8E22210
:0D0B0500E58229F582E5833AF583E4932229
:1009A100020B12E493A3F8E493A34003F68001F24F
:1009B10008DFF48029E493A3F85407240CC8C33357
:1009C100C4540F4420C8834004F456800146F6DF26
:1009D100E4800B0102040810204080900D99E47E10
:1009E100019360BCA3FF543F30E509541FFEE4931B
:1009F100A360010ECF54C025E060A840B8E493A3E2
:100A0100FAE493A3F8E493A3C8C582C8CAC583CA0C
:100A1100F0A3C8C582C8CAC583CADFE9DEE780BEC4
:010D9F000053
:00000001FF
